{
  "_format": "hh-sol-artifact-1",
  "contractName": "MultiSigWallet",
  "sourceName": "contracts/MultiSigWallet.sol",
  "abi": [
    {
      "inputs": [
        {
          "internalType": "address[]",
          "name": "_owners",
          "type": "address[]"
        }
      ],
      "stateMutability": "nonpayable",
      "type": "constructor"
    },
    {
      "anonymous": false,
      "inputs": [
        {
          "indexed": true,
          "internalType": "address",
          "name": "newAdmin",
          "type": "address"
        }
      ],
      "name": "AdminTransfer",
      "type": "event"
    },
    {
      "anonymous": false,
      "inputs": [
        {
          "indexed": true,
          "internalType": "address",
          "name": "sender",
          "type": "address"
        },
        {
          "indexed": true,
          "internalType": "uint256",
          "name": "transactionId",
          "type": "uint256"
        }
      ],
      "name": "Confirmation",
      "type": "event"
    },
    {
      "anonymous": false,
      "inputs": [
        {
          "indexed": true,
          "internalType": "address",
          "name": "sender",
          "type": "address"
        },
        {
          "indexed": false,
          "internalType": "uint256",
          "name": "value",
          "type": "uint256"
        }
      ],
      "name": "Deposit",
      "type": "event"
    },
    {
      "anonymous": false,
      "inputs": [
        {
          "indexed": true,
          "internalType": "uint256",
          "name": "transactionId",
          "type": "uint256"
        }
      ],
      "name": "Execution",
      "type": "event"
    },
    {
      "anonymous": false,
      "inputs": [
        {
          "indexed": true,
          "internalType": "uint256",
          "name": "transactionId",
          "type": "uint256"
        }
      ],
      "name": "ExecutionFailure",
      "type": "event"
    },
    {
      "anonymous": false,
      "inputs": [
        {
          "indexed": true,
          "internalType": "address",
          "name": "owner",
          "type": "address"
        }
      ],
      "name": "OwnerAddition",
      "type": "event"
    },
    {
      "anonymous": false,
      "inputs": [
        {
          "indexed": true,
          "internalType": "address",
          "name": "owner",
          "type": "address"
        }
      ],
      "name": "OwnerRemoval",
      "type": "event"
    },
    {
      "anonymous": false,
      "inputs": [
        {
          "indexed": false,
          "internalType": "uint256",
          "name": "quorum",
          "type": "uint256"
        }
      ],
      "name": "QuorumUpdate",
      "type": "event"
    },
    {
      "anonymous": false,
      "inputs": [
        {
          "indexed": true,
          "internalType": "address",
          "name": "sender",
          "type": "address"
        },
        {
          "indexed": true,
          "internalType": "uint256",
          "name": "transactionId",
          "type": "uint256"
        }
      ],
      "name": "Revocation",
      "type": "event"
    },
    {
      "anonymous": false,
      "inputs": [
        {
          "indexed": true,
          "internalType": "uint256",
          "name": "transactionId",
          "type": "uint256"
        }
      ],
      "name": "Submission",
      "type": "event"
    },
    {
      "stateMutability": "payable",
      "type": "fallback"
    },
    {
      "inputs": [
        {
          "internalType": "address",
          "name": "newAdmin",
          "type": "address"
        }
      ],
      "name": "AdminTransferFun",
      "outputs": [],
      "stateMutability": "nonpayable",
      "type": "function"
    },
    {
      "inputs": [
        {
          "internalType": "uint256",
          "name": "",
          "type": "uint256"
        }
      ],
      "name": "_validTransactions",
      "outputs": [
        {
          "internalType": "bool",
          "name": "executed",
          "type": "bool"
        },
        {
          "internalType": "address",
          "name": "destination",
          "type": "address"
        },
        {
          "internalType": "uint256",
          "name": "value",
          "type": "uint256"
        },
        {
          "internalType": "bytes",
          "name": "data",
          "type": "bytes"
        }
      ],
      "stateMutability": "view",
      "type": "function"
    },
    {
      "inputs": [
        {
          "internalType": "address",
          "name": "owner",
          "type": "address"
        }
      ],
      "name": "addOwner",
      "outputs": [],
      "stateMutability": "nonpayable",
      "type": "function"
    },
    {
      "inputs": [
        {
          "internalType": "uint256",
          "name": "transactionId",
          "type": "uint256"
        }
      ],
      "name": "confirmTransaction",
      "outputs": [],
      "stateMutability": "nonpayable",
      "type": "function"
    },
    {
      "inputs": [
        {
          "internalType": "uint256",
          "name": "",
          "type": "uint256"
        },
        {
          "internalType": "address",
          "name": "",
          "type": "address"
        }
      ],
      "name": "confirmations",
      "outputs": [
        {
          "internalType": "bool",
          "name": "",
          "type": "bool"
        }
      ],
      "stateMutability": "view",
      "type": "function"
    },
    {
      "inputs": [
        {
          "internalType": "uint256",
          "name": "transactionId",
          "type": "uint256"
        }
      ],
      "name": "executeTransaction",
      "outputs": [],
      "stateMutability": "nonpayable",
      "type": "function"
    },
    {
      "inputs": [],
      "name": "getOwners",
      "outputs": [
        {
          "internalType": "address[]",
          "name": "",
          "type": "address[]"
        }
      ],
      "stateMutability": "view",
      "type": "function"
    },
    {
      "inputs": [],
      "name": "getQuorum",
      "outputs": [
        {
          "internalType": "uint256",
          "name": "",
          "type": "uint256"
        }
      ],
      "stateMutability": "view",
      "type": "function"
    },
    {
      "inputs": [],
      "name": "getValidTransactions",
      "outputs": [
        {
          "components": [
            {
              "internalType": "bool",
              "name": "executed",
              "type": "bool"
            },
            {
              "internalType": "address",
              "name": "destination",
              "type": "address"
            },
            {
              "internalType": "uint256",
              "name": "value",
              "type": "uint256"
            },
            {
              "internalType": "bytes",
              "name": "data",
              "type": "bytes"
            }
          ],
          "internalType": "struct MultiSigWallet.Transaction[]",
          "name": "",
          "type": "tuple[]"
        }
      ],
      "stateMutability": "view",
      "type": "function"
    },
    {
      "inputs": [
        {
          "internalType": "address",
          "name": "",
          "type": "address"
        }
      ],
      "name": "isOwner",
      "outputs": [
        {
          "internalType": "bool",
          "name": "",
          "type": "bool"
        }
      ],
      "stateMutability": "view",
      "type": "function"
    },
    {
      "inputs": [],
      "name": "isReached",
      "outputs": [
        {
          "internalType": "bool",
          "name": "",
          "type": "bool"
        }
      ],
      "stateMutability": "view",
      "type": "function"
    },
    {
      "inputs": [
        {
          "internalType": "uint256",
          "name": "",
          "type": "uint256"
        }
      ],
      "name": "owners",
      "outputs": [
        {
          "internalType": "address",
          "name": "",
          "type": "address"
        }
      ],
      "stateMutability": "view",
      "type": "function"
    },
    {
      "inputs": [],
      "name": "quorum",
      "outputs": [
        {
          "internalType": "uint256",
          "name": "",
          "type": "uint256"
        }
      ],
      "stateMutability": "view",
      "type": "function"
    },
    {
      "inputs": [
        {
          "internalType": "address",
          "name": "owner",
          "type": "address"
        }
      ],
      "name": "removeOwner",
      "outputs": [],
      "stateMutability": "nonpayable",
      "type": "function"
    },
    {
      "inputs": [
        {
          "internalType": "uint256",
          "name": "transactionId",
          "type": "uint256"
        }
      ],
      "name": "revokeTransaction",
      "outputs": [],
      "stateMutability": "nonpayable",
      "type": "function"
    },
    {
      "inputs": [
        {
          "internalType": "address",
          "name": "destination",
          "type": "address"
        },
        {
          "internalType": "uint256",
          "name": "value",
          "type": "uint256"
        },
        {
          "internalType": "bytes",
          "name": "data",
          "type": "bytes"
        }
      ],
      "name": "submitTransaction",
      "outputs": [
        {
          "internalType": "uint256",
          "name": "transactionId",
          "type": "uint256"
        }
      ],
      "stateMutability": "nonpayable",
      "type": "function"
    },
    {
      "inputs": [],
      "name": "success",
      "outputs": [
        {
          "internalType": "bool",
          "name": "",
          "type": "bool"
        }
      ],
      "stateMutability": "view",
      "type": "function"
    },
    {
      "inputs": [],
      "name": "transactionCount",
      "outputs": [
        {
          "internalType": "uint256",
          "name": "",
          "type": "uint256"
        }
      ],
      "stateMutability": "view",
      "type": "function"
    },
    {
      "inputs": [
        {
          "internalType": "uint256",
          "name": "",
          "type": "uint256"
        }
      ],
      "name": "transactions",
      "outputs": [
        {
          "internalType": "bool",
          "name": "executed",
          "type": "bool"
        },
        {
          "internalType": "address",
          "name": "destination",
          "type": "address"
        },
        {
          "internalType": "uint256",
          "name": "value",
          "type": "uint256"
        },
        {
          "internalType": "bytes",
          "name": "data",
          "type": "bytes"
        }
      ],
      "stateMutability": "view",
      "type": "function"
    },
    {
      "inputs": [
        {
          "internalType": "address",
          "name": "_from",
          "type": "address"
        },
        {
          "internalType": "address",
          "name": "_to",
          "type": "address"
        }
      ],
      "name": "transferOwner",
      "outputs": [],
      "stateMutability": "nonpayable",
      "type": "function"
    },
    {
      "stateMutability": "payable",
      "type": "receive"
    }
  ],
  "bytecode": "0x60806040523480156200001157600080fd5b50604051620034893803806200348983398181016040528101906200003791906200044d565b80336000806101000a81548173ffffffffffffffffffffffffffffffffffffffff021916908373ffffffffffffffffffffffffffffffffffffffff16021790555060038151116200008757600080fd5b60005b81518110156200011f57600160026000848481518110620000b057620000af6200049e565b5b602002602001015173ffffffffffffffffffffffffffffffffffffffff1673ffffffffffffffffffffffffffffffffffffffff16815260200190815260200160002060006101000a81548160ff0219169083151502179055508080620001169062000506565b9150506200008a565b50806001908051906020019062000138929190620001b1565b50600062000158600180549050603c6200018160201b62001fca1760201c565b9050620001728160646200019960201b62001fe01760201c565b60038190555050505062000605565b6000818362000191919062000553565b905092915050565b60008183620001a99190620005cd565b905092915050565b8280548282559060005260206000209081019282156200022d579160200282015b828111156200022c5782518260006101000a81548173ffffffffffffffffffffffffffffffffffffffff021916908373ffffffffffffffffffffffffffffffffffffffff16021790555091602001919060010190620001d2565b5b5090506200023c919062000240565b5090565b5b808211156200025b57600081600090555060010162000241565b5090565b6000604051905090565b600080fd5b600080fd5b600080fd5b6000601f19601f8301169050919050565b7f4e487b7100000000000000000000000000000000000000000000000000000000600052604160045260246000fd5b620002c38262000278565b810181811067ffffffffffffffff82111715620002e557620002e462000289565b5b80604052505050565b6000620002fa6200025f565b9050620003088282620002b8565b919050565b600067ffffffffffffffff8211156200032b576200032a62000289565b5b602082029050602081019050919050565b600080fd5b600073ffffffffffffffffffffffffffffffffffffffff82169050919050565b60006200036e8262000341565b9050919050565b620003808162000361565b81146200038c57600080fd5b50565b600081519050620003a08162000375565b92915050565b6000620003bd620003b7846200030d565b620002ee565b90508083825260208201905060208402830185811115620003e357620003e26200033c565b5b835b81811015620004105780620003fb88826200038f565b845260208401935050602081019050620003e5565b5050509392505050565b600082601f83011262000432576200043162000273565b5b815162000444848260208601620003a6565b91505092915050565b60006020828403121562000466576200046562000269565b5b600082015167ffffffffffffffff8111156200048757620004866200026e565b5b62000495848285016200041a565b91505092915050565b7f4e487b7100000000000000000000000000000000000000000000000000000000600052603260045260246000fd5b7f4e487b7100000000000000000000000000000000000000000000000000000000600052601160045260246000fd5b6000819050919050565b60006200051382620004fc565b91507fffffffffffffffffffffffffffffffffffffffffffffffffffffffffffffffff8203620005485762000547620004cd565b5b600182019050919050565b60006200056082620004fc565b91506200056d83620004fc565b92508282026200057d81620004fc565b91508282048414831517620005975762000596620004cd565b5b5092915050565b7f4e487b7100000000000000000000000000000000000000000000000000000000600052601260045260246000fd5b6000620005da82620004fc565b9150620005e783620004fc565b925082620005fa57620005f96200059e565b5b828204905092915050565b612e7480620006156000396000f3fe6080604052600436106101235760003560e01c8063735631ad116100a0578063c26c12eb11610064578063c26c12eb146104a0578063c6427474146104cb578063dcf506e414610508578063ee22610b14610548578063f57a70a71461057157610182565b8063735631ad146103b85780639ace38c2146103e1578063a0e67e2b14610421578063b77bf6001461044c578063c01a8c841461047757610182565b806320ea8299116100e757806320ea8299146102c15780632f54bf6e146102ec57806331678cf6146103295780633411c81c146103525780637065cb481461038f57610182565b8063025e7c27146101dc5780630b93381b146102195780631703a01814610244578063173825d91461026f578063197da8f11461029857610182565b36610182576000341115610180573373ffffffffffffffffffffffffffffffffffffffff167fe1fffcc4923d04b559f4d29a8bfc6cda04eb5b0d3c460751c2402c5c5cc9109c34604051610177919061206d565b60405180910390a25b005b60003411156101da573373ffffffffffffffffffffffffffffffffffffffff167fe1fffcc4923d04b559f4d29a8bfc6cda04eb5b0d3c460751c2402c5c5cc9109c346040516101d1919061206d565b60405180910390a25b005b3480156101e857600080fd5b5061020360048036038101906101fe91906120c8565b61059c565b6040516102109190612136565b60405180910390f35b34801561022557600080fd5b5061022e6105db565b60405161023b919061216c565b60405180910390f35b34801561025057600080fd5b506102596105ee565b604051610266919061206d565b60405180910390f35b34801561027b57600080fd5b50610296600480360381019061029191906121b3565b6105f4565b005b3480156102a457600080fd5b506102bf60048036038101906102ba91906121b3565b6109a9565b005b3480156102cd57600080fd5b506102d6610ac2565b6040516102e391906123c2565b60405180910390f35b3480156102f857600080fd5b50610313600480360381019061030e91906121b3565b610c2e565b604051610320919061216c565b60405180910390f35b34801561033557600080fd5b50610350600480360381019061034b91906123e4565b610c4e565b005b34801561035e57600080fd5b5061037960048036038101906103749190612424565b610fb3565b604051610386919061216c565b60405180910390f35b34801561039b57600080fd5b506103b660048036038101906103b191906121b3565b610fe2565b005b3480156103c457600080fd5b506103df60048036038101906103da91906120c8565b611264565b005b3480156103ed57600080fd5b50610408600480360381019061040391906120c8565b6114c2565b60405161041894939291906124ae565b60405180910390f35b34801561042d57600080fd5b506104366115a7565b60405161044391906125a9565b60405180910390f35b34801561045857600080fd5b50610461611635565b60405161046e919061206d565b60405180910390f35b34801561048357600080fd5b5061049e600480360381019061049991906120c8565b61163b565b005b3480156104ac57600080fd5b506104b561186c565b6040516104c2919061206d565b60405180910390f35b3480156104d757600080fd5b506104f260048036038101906104ed9190612700565b611876565b6040516104ff919061206d565b60405180910390f35b34801561051457600080fd5b5061052f600480360381019061052a91906120c8565b611a3e565b60405161053f94939291906124ae565b60405180910390f35b34801561055457600080fd5b5061056f600480360381019061056a91906120c8565b611b33565b005b34801561057d57600080fd5b50610586611fb7565b604051610593919061216c565b60405180910390f35b600181815481106105ac57600080fd5b906000526020600020016000915054906101000a900473ffffffffffffffffffffffffffffffffffffffff1681565b600860019054906101000a900460ff1681565b60035481565b60008054906101000a900473ffffffffffffffffffffffffffffffffffffffff1673ffffffffffffffffffffffffffffffffffffffff163373ffffffffffffffffffffffffffffffffffffffff161461064c57600080fd5b80600073ffffffffffffffffffffffffffffffffffffffff168173ffffffffffffffffffffffffffffffffffffffff160361068657600080fd5b8160011515600260008373ffffffffffffffffffffffffffffffffffffffff1673ffffffffffffffffffffffffffffffffffffffff16815260200190815260200160002060009054906101000a900460ff161515146106e457600080fd5b6000600260008573ffffffffffffffffffffffffffffffffffffffff1673ffffffffffffffffffffffffffffffffffffffff16815260200190815260200160002060006101000a81548160ff02191690831515021790555060005b60018080549050610750919061279e565b8110156108d1578373ffffffffffffffffffffffffffffffffffffffff1660018281548110610782576107816127d2565b5b9060005260206000200160009054906101000a900473ffffffffffffffffffffffffffffffffffffffff1673ffffffffffffffffffffffffffffffffffffffff16036108775760018080805490506107da919061279e565b815481106107eb576107ea6127d2565b5b9060005260206000200160009054906101000a900473ffffffffffffffffffffffffffffffffffffffff166001828154811061082a576108296127d2565b5b9060005260206000200160006101000a81548173ffffffffffffffffffffffffffffffffffffffff021916908373ffffffffffffffffffffffffffffffffffffffff1602179055506108d1565b600180548061088957610888612801565b5b6001900381819060005260206000200160006101000a81549073ffffffffffffffffffffffffffffffffffffffff0219169055905580806108c990612830565b91505061073f565b508273ffffffffffffffffffffffffffffffffffffffff167f8001553a916ef2f495d26a907cc54d96ed840d7bda71e73194bf5a9df7a76b9060405160405180910390a26109a4600180548060200260200160405190810160405280929190818152602001828054801561099a57602002820191906000526020600020905b8160009054906101000a900473ffffffffffffffffffffffffffffffffffffffff1673ffffffffffffffffffffffffffffffffffffffff1681526020019060010190808311610950575b5050505050611ff6565b505050565b60008054906101000a900473ffffffffffffffffffffffffffffffffffffffff1673ffffffffffffffffffffffffffffffffffffffff163373ffffffffffffffffffffffffffffffffffffffff1614610a0157600080fd5b80600073ffffffffffffffffffffffffffffffffffffffff168173ffffffffffffffffffffffffffffffffffffffff1603610a3b57600080fd5b816000806101000a81548173ffffffffffffffffffffffffffffffffffffffff021916908373ffffffffffffffffffffffffffffffffffffffff1602179055508173ffffffffffffffffffffffffffffffffffffffff167f1d751f0bc5c9e1dd4d5952599ce7bb9ef42169fb73003fc75d9e6a26d135136c60405160405180910390a25050565b60606006805480602002602001604051908101604052809291908181526020016000905b82821015610c2557838290600052602060002090600302016040518060800160405290816000820160009054906101000a900460ff161515151581526020016000820160019054906101000a900473ffffffffffffffffffffffffffffffffffffffff1673ffffffffffffffffffffffffffffffffffffffff1673ffffffffffffffffffffffffffffffffffffffff16815260200160018201548152602001600282018054610b94906128a7565b80601f0160208091040260200160405190810160405280929190818152602001828054610bc0906128a7565b8015610c0d5780601f10610be257610100808354040283529160200191610c0d565b820191906000526020600020905b815481529060010190602001808311610bf057829003601f168201915b50505050508152505081526020019060010190610ae6565b50505050905090565b60026020528060005260406000206000915054906101000a900460ff1681565b81600073ffffffffffffffffffffffffffffffffffffffff168173ffffffffffffffffffffffffffffffffffffffff1603610c8857600080fd5b81600073ffffffffffffffffffffffffffffffffffffffff168173ffffffffffffffffffffffffffffffffffffffff1603610cc257600080fd5b8360011515600260008373ffffffffffffffffffffffffffffffffffffffff1673ffffffffffffffffffffffffffffffffffffffff16815260200190815260200160002060009054906101000a900460ff16151514610d2057600080fd5b8360001515600260008373ffffffffffffffffffffffffffffffffffffffff1673ffffffffffffffffffffffffffffffffffffffff16815260200190815260200160002060009054906101000a900460ff16151514610d7e57600080fd5b60005b600180549050811015610e74578673ffffffffffffffffffffffffffffffffffffffff1660018281548110610db957610db86127d2565b5b9060005260206000200160009054906101000a900473ffffffffffffffffffffffffffffffffffffffff1673ffffffffffffffffffffffffffffffffffffffff1603610e61578560018281548110610e1457610e136127d2565b5b9060005260206000200160006101000a81548173ffffffffffffffffffffffffffffffffffffffff021916908373ffffffffffffffffffffffffffffffffffffffff160217905550610e74565b8080610e6c90612830565b915050610d81565b506000600260008873ffffffffffffffffffffffffffffffffffffffff1673ffffffffffffffffffffffffffffffffffffffff16815260200190815260200160002060006101000a81548160ff0219169083151502179055506001600260008773ffffffffffffffffffffffffffffffffffffffff1673ffffffffffffffffffffffffffffffffffffffff16815260200190815260200160002060006101000a81548160ff0219169083151502179055508573ffffffffffffffffffffffffffffffffffffffff167f8001553a916ef2f495d26a907cc54d96ed840d7bda71e73194bf5a9df7a76b9060405160405180910390a28473ffffffffffffffffffffffffffffffffffffffff167ff39e6e1eb0edcf53c221607b54b00cd28f3196fed0a24994dc308b8f611b682d60405160405180910390a2505050505050565b60076020528160005260406000206020528060005260406000206000915091509054906101000a900460ff1681565b60008054906101000a900473ffffffffffffffffffffffffffffffffffffffff1673ffffffffffffffffffffffffffffffffffffffff163373ffffffffffffffffffffffffffffffffffffffff161461103a57600080fd5b80600073ffffffffffffffffffffffffffffffffffffffff168173ffffffffffffffffffffffffffffffffffffffff160361107457600080fd5b8160001515600260008373ffffffffffffffffffffffffffffffffffffffff1673ffffffffffffffffffffffffffffffffffffffff16815260200190815260200160002060009054906101000a900460ff161515146110d257600080fd5b6001600260008573ffffffffffffffffffffffffffffffffffffffff1673ffffffffffffffffffffffffffffffffffffffff16815260200190815260200160002060006101000a81548160ff0219169083151502179055506001839080600181540180825580915050600190039060005260206000200160009091909190916101000a81548173ffffffffffffffffffffffffffffffffffffffff021916908373ffffffffffffffffffffffffffffffffffffffff1602179055508273ffffffffffffffffffffffffffffffffffffffff167ff39e6e1eb0edcf53c221607b54b00cd28f3196fed0a24994dc308b8f611b682d60405160405180910390a261125f600180548060200260200160405190810160405280929190818152602001828054801561125557602002820191906000526020600020905b8160009054906101000a900473ffffffffffffffffffffffffffffffffffffffff1673ffffffffffffffffffffffffffffffffffffffff168152602001906001019080831161120b575b5050505050611ff6565b505050565b3360011515600260008373ffffffffffffffffffffffffffffffffffffffff1673ffffffffffffffffffffffffffffffffffffffff16815260200190815260200160002060009054906101000a900460ff161515146112f8576040517f08c379a00000000000000000000000000000000000000000000000000000000081526004016112ef9061295b565b60405180910390fd5b8133600015156007600084815260200190815260200160002060008373ffffffffffffffffffffffffffffffffffffffff1673ffffffffffffffffffffffffffffffffffffffff16815260200190815260200160002060009054906101000a900460ff1615151461136857600080fd5b83600015156005600083815260200190815260200160002060000160009054906101000a900460ff1615151461139d57600080fd5b6005600086815260200190815260200160002060000160019054906101000a900473ffffffffffffffffffffffffffffffffffffffff16600073ffffffffffffffffffffffffffffffffffffffff168173ffffffffffffffffffffffffffffffffffffffff160361140d57600080fd5b60006007600088815260200190815260200160002060003373ffffffffffffffffffffffffffffffffffffffff1673ffffffffffffffffffffffffffffffffffffffff16815260200190815260200160002060006101000a81548160ff021916908315150217905550853373ffffffffffffffffffffffffffffffffffffffff167ff6a317157440607f36269043eb55f1287a5a19ba2216afeab88cd46cbcfb88e960405160405180910390a3505050505050565b60056020528060005260406000206000915090508060000160009054906101000a900460ff16908060000160019054906101000a900473ffffffffffffffffffffffffffffffffffffffff1690806001015490806002018054611524906128a7565b80601f0160208091040260200160405190810160405280929190818152602001828054611550906128a7565b801561159d5780601f106115725761010080835404028352916020019161159d565b820191906000526020600020905b81548152906001019060200180831161158057829003601f168201915b5050505050905084565b6060600180548060200260200160405190810160405280929190818152602001828054801561162b57602002820191906000526020600020905b8160009054906101000a900473ffffffffffffffffffffffffffffffffffffffff1673ffffffffffffffffffffffffffffffffffffffff16815260200190600101908083116115e1575b5050505050905090565b60045481565b3360011515600260008373ffffffffffffffffffffffffffffffffffffffff1673ffffffffffffffffffffffffffffffffffffffff16815260200190815260200160002060009054906101000a900460ff161515146116cf576040517f08c379a00000000000000000000000000000000000000000000000000000000081526004016116c69061295b565b60405180910390fd5b8133600015156007600084815260200190815260200160002060008373ffffffffffffffffffffffffffffffffffffffff1673ffffffffffffffffffffffffffffffffffffffff16815260200190815260200160002060009054906101000a900460ff1615151461173f57600080fd5b6005600085815260200190815260200160002060000160019054906101000a900473ffffffffffffffffffffffffffffffffffffffff16600073ffffffffffffffffffffffffffffffffffffffff168173ffffffffffffffffffffffffffffffffffffffff16036117af57600080fd5b60016007600087815260200190815260200160002060003373ffffffffffffffffffffffffffffffffffffffff1673ffffffffffffffffffffffffffffffffffffffff16815260200190815260200160002060006101000a81548160ff021916908315150217905550843373ffffffffffffffffffffffffffffffffffffffff167f4a504a94899432a9846e1aa406dceb1bcfd538bb839071d49d1e5e23f5be30ef60405160405180910390a361186585611b33565b5050505050565b6000600354905090565b60003360011515600260008373ffffffffffffffffffffffffffffffffffffffff1673ffffffffffffffffffffffffffffffffffffffff16815260200190815260200160002060009054906101000a900460ff1615151461190c576040517f08c379a00000000000000000000000000000000000000000000000000000000081526004016119039061295b565b60405180910390fd5b600454915060405180608001604052806000151581526020018673ffffffffffffffffffffffffffffffffffffffff168152602001858152602001848152506005600084815260200190815260200160002060008201518160000160006101000a81548160ff02191690831515021790555060208201518160000160016101000a81548173ffffffffffffffffffffffffffffffffffffffff021916908373ffffffffffffffffffffffffffffffffffffffff1602179055506040820151816001015560608201518160020190816119e49190612b27565b50905050600460008154809291906119fb90612830565b9190505550817fc0ba8fe4b176c1714197d43b9cc6bcf797a4a7461c5fe8d0ef6e184ae7601e5160405160405180910390a2611a368261163b565b509392505050565b60068181548110611a4e57600080fd5b90600052602060002090600302016000915090508060000160009054906101000a900460ff16908060000160019054906101000a900473ffffffffffffffffffffffffffffffffffffffff1690806001015490806002018054611ab0906128a7565b80601f0160208091040260200160405190810160405280929190818152602001828054611adc906128a7565b8015611b295780601f10611afe57610100808354040283529160200191611b29565b820191906000526020600020905b815481529060010190602001808311611b0c57829003601f168201915b5050505050905084565b3360011515600260008373ffffffffffffffffffffffffffffffffffffffff1673ffffffffffffffffffffffffffffffffffffffff16815260200190815260200160002060009054906101000a900460ff16151514611bc7576040517f08c379a0000000000000000000000000000000000000000000000000000000008152600401611bbe9061295b565b60405180910390fd5b81600015156005600083815260200190815260200160002060000160009054906101000a900460ff16151514611bfc57600080fd5b6000805b600180549050811015611cf55760076000868152602001908152602001600020600060018381548110611c3657611c356127d2565b5b9060005260206000200160009054906101000a900473ffffffffffffffffffffffffffffffffffffffff1673ffffffffffffffffffffffffffffffffffffffff1673ffffffffffffffffffffffffffffffffffffffff16815260200190815260200160002060009054906101000a900460ff1615611cbd578180611cb990612830565b9250505b6003548210611ce2576001600860006101000a81548160ff0219169083151502179055505b8080611ced90612830565b915050611c00565b50600860009054906101000a900460ff1615611fb157600060056000868152602001908152602001600020905060018160000160006101000a81548160ff0219169083151502179055506005600086815260200190815260200160002060000160019054906101000a900473ffffffffffffffffffffffffffffffffffffffff1673ffffffffffffffffffffffffffffffffffffffff16600560008781526020019081526020016000206001015460056000888152602001908152602001600020600201604051611dc69190612c87565b60006040518083038185875af1925050503d8060008114611e03576040519150601f19603f3d011682016040523d82523d6000602084013e611e08565b606091505b506008600160096000849190509081611e219190612b27565b508391906101000a81548160ff0219169083151502179055505050600860019054906101000a900460ff1615611f645760068190806001815401808255809150506001900390600052602060002090600302016000909190919091506000820160009054906101000a900460ff168160000160006101000a81548160ff0219169083151502179055506000820160019054906101000a900473ffffffffffffffffffffffffffffffffffffffff168160000160016101000a81548173ffffffffffffffffffffffffffffffffffffffff021916908373ffffffffffffffffffffffffffffffffffffffff1602179055506001820154816001015560028201816002019081611f2f9190612cb4565b505050847f33e13ecb54c3076d8e8bb8c2881800a4d972b792045ffae98fdf46df365fed7560405160405180910390a2611faf565b847f526441bb6c1aba3c9a4a6ca1d6545da9c2333c8c48343ef398eb858d72b7923660405160405180910390a260008160000160006101000a81548160ff0219169083151502179055505b505b50505050565b600860009054906101000a900460ff1681565b60008183611fd89190612d9c565b905092915050565b60008183611fee9190612e0d565b905092915050565b60006120048251603c611fca565b9050612011816064611fe0565b6003819055507f672e46ac0e6acc1662bb680b70032b6d2669924997353a59f789f7be780f8d3e600354604051612048919061206d565b60405180910390a15050565b6000819050919050565b61206781612054565b82525050565b6000602082019050612082600083018461205e565b92915050565b6000604051905090565b600080fd5b600080fd5b6120a581612054565b81146120b057600080fd5b50565b6000813590506120c28161209c565b92915050565b6000602082840312156120de576120dd612092565b5b60006120ec848285016120b3565b91505092915050565b600073ffffffffffffffffffffffffffffffffffffffff82169050919050565b6000612120826120f5565b9050919050565b61213081612115565b82525050565b600060208201905061214b6000830184612127565b92915050565b60008115159050919050565b61216681612151565b82525050565b6000602082019050612181600083018461215d565b92915050565b61219081612115565b811461219b57600080fd5b50565b6000813590506121ad81612187565b92915050565b6000602082840312156121c9576121c8612092565b5b60006121d78482850161219e565b91505092915050565b600081519050919050565b600082825260208201905092915050565b6000819050602082019050919050565b61221581612151565b82525050565b61222481612115565b82525050565b61223381612054565b82525050565b600081519050919050565b600082825260208201905092915050565b60005b83811015612273578082015181840152602081019050612258565b60008484015250505050565b6000601f19601f8301169050919050565b600061229b82612239565b6122a58185612244565b93506122b5818560208601612255565b6122be8161227f565b840191505092915050565b60006080830160008301516122e1600086018261220c565b5060208301516122f4602086018261221b565b506040830151612307604086018261222a565b506060830151848203606086015261231f8282612290565b9150508091505092915050565b600061233883836122c9565b905092915050565b6000602082019050919050565b6000612358826121e0565b61236281856121eb565b935083602082028501612374856121fc565b8060005b858110156123b05784840389528151612391858261232c565b945061239c83612340565b925060208a01995050600181019050612378565b50829750879550505050505092915050565b600060208201905081810360008301526123dc818461234d565b905092915050565b600080604083850312156123fb576123fa612092565b5b60006124098582860161219e565b925050602061241a8582860161219e565b9150509250929050565b6000806040838503121561243b5761243a612092565b5b6000612449858286016120b3565b925050602061245a8582860161219e565b9150509250929050565b600082825260208201905092915050565b600061248082612239565b61248a8185612464565b935061249a818560208601612255565b6124a38161227f565b840191505092915050565b60006080820190506124c3600083018761215d565b6124d06020830186612127565b6124dd604083018561205e565b81810360608301526124ef8184612475565b905095945050505050565b600081519050919050565b600082825260208201905092915050565b6000819050602082019050919050565b6000612532838361221b565b60208301905092915050565b6000602082019050919050565b6000612556826124fa565b6125608185612505565b935061256b83612516565b8060005b8381101561259c5781516125838882612526565b975061258e8361253e565b92505060018101905061256f565b5085935050505092915050565b600060208201905081810360008301526125c3818461254b565b905092915050565b600080fd5b600080fd5b7f4e487b7100000000000000000000000000000000000000000000000000000000600052604160045260246000fd5b61260d8261227f565b810181811067ffffffffffffffff8211171561262c5761262b6125d5565b5b80604052505050565b600061263f612088565b905061264b8282612604565b919050565b600067ffffffffffffffff82111561266b5761266a6125d5565b5b6126748261227f565b9050602081019050919050565b82818337600083830152505050565b60006126a361269e84612650565b612635565b9050828152602081018484840111156126bf576126be6125d0565b5b6126ca848285612681565b509392505050565b600082601f8301126126e7576126e66125cb565b5b81356126f7848260208601612690565b91505092915050565b60008060006060848603121561271957612718612092565b5b60006127278682870161219e565b9350506020612738868287016120b3565b925050604084013567ffffffffffffffff81111561275957612758612097565b5b612765868287016126d2565b9150509250925092565b7f4e487b7100000000000000000000000000000000000000000000000000000000600052601160045260246000fd5b60006127a982612054565b91506127b483612054565b92508282039050818111156127cc576127cb61276f565b5b92915050565b7f4e487b7100000000000000000000000000000000000000000000000000000000600052603260045260246000fd5b7f4e487b7100000000000000000000000000000000000000000000000000000000600052603160045260246000fd5b600061283b82612054565b91507fffffffffffffffffffffffffffffffffffffffffffffffffffffffffffffffff820361286d5761286c61276f565b5b600182019050919050565b7f4e487b7100000000000000000000000000000000000000000000000000000000600052602260045260246000fd5b600060028204905060018216806128bf57607f821691505b6020821081036128d2576128d1612878565b5b50919050565b600082825260208201905092915050565b7f596f7520617265206e6f7420617574686f72697a656420666f7220746869732060008201527f616374696f6e2e00000000000000000000000000000000000000000000000000602082015250565b60006129456027836128d8565b9150612950826128e9565b604082019050919050565b6000602082019050818103600083015261297481612938565b9050919050565b60008190508160005260206000209050919050565b60006020601f8301049050919050565b600082821b905092915050565b6000600883026129dd7fffffffffffffffffffffffffffffffffffffffffffffffffffffffffffffffff826129a0565b6129e786836129a0565b95508019841693508086168417925050509392505050565b6000819050919050565b6000612a24612a1f612a1a84612054565b6129ff565b612054565b9050919050565b6000819050919050565b612a3e83612a09565b612a52612a4a82612a2b565b8484546129ad565b825550505050565b600090565b612a67612a5a565b612a72818484612a35565b505050565b5b81811015612a9657612a8b600082612a5f565b600181019050612a78565b5050565b601f821115612adb57612aac8161297b565b612ab584612990565b81016020851015612ac4578190505b612ad8612ad085612990565b830182612a77565b50505b505050565b600082821c905092915050565b6000612afe60001984600802612ae0565b1980831691505092915050565b6000612b178383612aed565b9150826002028217905092915050565b612b3082612239565b67ffffffffffffffff811115612b4957612b486125d5565b5b612b5382546128a7565b612b5e828285612a9a565b600060209050601f831160018114612b915760008415612b7f578287015190505b612b898582612b0b565b865550612bf1565b601f198416612b9f8661297b565b60005b82811015612bc757848901518255600182019150602085019450602081019050612ba2565b86831015612be45784890151612be0601f891682612aed565b8355505b6001600288020188555050505b505050505050565b600081905092915050565b60008154612c11816128a7565b612c1b8186612bf9565b94506001821660008114612c365760018114612c4b57612c7e565b60ff1983168652811515820286019350612c7e565b612c548561297b565b60005b83811015612c7657815481890152600182019150602081019050612c57565b838801955050505b50505092915050565b6000612c938284612c04565b915081905092915050565b600081549050612cad816128a7565b9050919050565b818103612cc2575050612d9a565b612ccb82612c9e565b67ffffffffffffffff811115612ce457612ce36125d5565b5b612cee82546128a7565b612cf9828285612a9a565b6000601f831160018114612d285760008415612d16578287015490505b612d208582612b0b565b865550612d93565b601f198416612d368761297b565b9650612d418661297b565b60005b82811015612d6957848901548255600182019150600185019450602081019050612d44565b86831015612d865784890154612d82601f891682612aed565b8355505b6001600288020188555050505b5050505050505b565b6000612da782612054565b9150612db283612054565b9250828202612dc081612054565b91508282048414831517612dd757612dd661276f565b5b5092915050565b7f4e487b7100000000000000000000000000000000000000000000000000000000600052601260045260246000fd5b6000612e1882612054565b9150612e2383612054565b925082612e3357612e32612dde565b5b82820490509291505056fea2646970667358221220b0e9876fc66fc9d16dfbc7ce23d6dcffa1a378e4dc8debdc904070c06b39d42d64736f6c63430008110033",
  "linkReferences": {},
  "deployedLinkReferences": {}
}